{
  "_format": "hh-sol-artifact-1",
  "contractName": "LandRegistry",
  "sourceName": "contracts/LandRegistry.sol",
  "abi": [
    {
      "anonymous": false,
      "inputs": [
        {
          "indexed": false,
          "internalType": "uint256",
          "name": "landId",
          "type": "uint256"
        },
        {
          "indexed": false,
          "internalType": "uint256",
          "name": "price",
          "type": "uint256"
        }
      ],
      "name": "LandForSale",
      "type": "event"
    },
    {
      "anonymous": false,
      "inputs": [
        {
          "indexed": false,
          "internalType": "uint256",
          "name": "landId",
          "type": "uint256"
        },
        {
          "indexed": false,
          "internalType": "string",
          "name": "location",
          "type": "string"
        },
        {
          "indexed": false,
          "internalType": "string",
          "name": "ownerName",
          "type": "string"
        },
        {
          "indexed": false,
          "internalType": "uint256",
          "name": "area",
          "type": "uint256"
        }
      ],
      "name": "LandRegistered",
      "type": "event"
    },
    {
      "anonymous": false,
      "inputs": [
        {
          "indexed": false,
          "internalType": "uint256",
          "name": "landId",
          "type": "uint256"
        },
        {
          "indexed": false,
          "internalType": "address",
          "name": "from",
          "type": "address"
        },
        {
          "indexed": false,
          "internalType": "address",
          "name": "to",
          "type": "address"
        },
        {
          "indexed": false,
          "internalType": "uint256",
          "name": "price",
          "type": "uint256"
        }
      ],
      "name": "LandSold",
      "type": "event"
    },
    {
      "anonymous": false,
      "inputs": [
        {
          "indexed": false,
          "internalType": "uint256",
          "name": "landId",
          "type": "uint256"
        },
        {
          "indexed": false,
          "internalType": "address",
          "name": "from",
          "type": "address"
        },
        {
          "indexed": false,
          "internalType": "address",
          "name": "to",
          "type": "address"
        },
        {
          "indexed": false,
          "internalType": "string",
          "name": "newOwnerName",
          "type": "string"
        }
      ],
      "name": "OwnershipTransferred",
      "type": "event"
    },
    {
      "anonymous": false,
      "inputs": [
        {
          "indexed": true,
          "internalType": "address",
          "name": "previousOwner",
          "type": "address"
        },
        {
          "indexed": true,
          "internalType": "address",
          "name": "newOwner",
          "type": "address"
        }
      ],
      "name": "OwnershipTransferred",
      "type": "event"
    },
    {
      "inputs": [
        {
          "internalType": "uint256",
          "name": "_landId",
          "type": "uint256"
        },
        {
          "internalType": "string",
          "name": "_newOwnerName",
          "type": "string"
        }
      ],
      "name": "buyLand",
      "outputs": [],
      "stateMutability": "payable",
      "type": "function"
    },
    {
      "inputs": [
        {
          "internalType": "uint256",
          "name": "_landId",
          "type": "uint256"
        }
      ],
      "name": "getLandDetails",
      "outputs": [
        {
          "internalType": "string",
          "name": "",
          "type": "string"
        },
        {
          "internalType": "string",
          "name": "",
          "type": "string"
        },
        {
          "internalType": "uint256",
          "name": "",
          "type": "uint256"
        },
        {
          "internalType": "uint256",
          "name": "",
          "type": "uint256"
        },
        {
          "internalType": "bool",
          "name": "",
          "type": "bool"
        },
        {
          "internalType": "address",
          "name": "",
          "type": "address"
        }
      ],
      "stateMutability": "view",
      "type": "function"
    },
    {
      "inputs": [
        {
          "internalType": "address",
          "name": "_owner",
          "type": "address"
        }
      ],
      "name": "getLandsByOwner",
      "outputs": [
        {
          "internalType": "uint256[]",
          "name": "",
          "type": "uint256[]"
        }
      ],
      "stateMutability": "view",
      "type": "function"
    },
    {
      "inputs": [],
      "name": "landCount",
      "outputs": [
        {
          "internalType": "uint256",
          "name": "",
          "type": "uint256"
        }
      ],
      "stateMutability": "view",
      "type": "function"
    },
    {
      "inputs": [
        {
          "internalType": "uint256",
          "name": "",
          "type": "uint256"
        }
      ],
      "name": "lands",
      "outputs": [
        {
          "internalType": "string",
          "name": "location",
          "type": "string"
        },
        {
          "internalType": "string",
          "name": "ownerName",
          "type": "string"
        },
        {
          "internalType": "uint256",
          "name": "area",
          "type": "uint256"
        },
        {
          "internalType": "uint256",
          "name": "price",
          "type": "uint256"
        },
        {
          "internalType": "bool",
          "name": "isForSale",
          "type": "bool"
        },
        {
          "internalType": "address",
          "name": "currentOwner",
          "type": "address"
        }
      ],
      "stateMutability": "view",
      "type": "function"
    },
    {
      "inputs": [],
      "name": "owner",
      "outputs": [
        {
          "internalType": "address",
          "name": "",
          "type": "address"
        }
      ],
      "stateMutability": "view",
      "type": "function"
    },
    {
      "inputs": [
        {
          "internalType": "string",
          "name": "_location",
          "type": "string"
        },
        {
          "internalType": "string",
          "name": "_ownerName",
          "type": "string"
        },
        {
          "internalType": "uint256",
          "name": "_area",
          "type": "uint256"
        },
        {
          "internalType": "uint256",
          "name": "_price",
          "type": "uint256"
        }
      ],
      "name": "registerLand",
      "outputs": [],
      "stateMutability": "nonpayable",
      "type": "function"
    },
    {
      "inputs": [],
      "name": "renounceOwnership",
      "outputs": [],
      "stateMutability": "nonpayable",
      "type": "function"
    },
    {
      "inputs": [
        {
          "internalType": "uint256",
          "name": "_landId",
          "type": "uint256"
        },
        {
          "internalType": "uint256",
          "name": "_price",
          "type": "uint256"
        }
      ],
      "name": "toggleForSale",
      "outputs": [],
      "stateMutability": "nonpayable",
      "type": "function"
    },
    {
      "inputs": [
        {
          "internalType": "uint256",
          "name": "_landId",
          "type": "uint256"
        },
        {
          "internalType": "address",
          "name": "_to",
          "type": "address"
        },
        {
          "internalType": "string",
          "name": "_newOwnerName",
          "type": "string"
        }
      ],
      "name": "transferOwnership",
      "outputs": [],
      "stateMutability": "nonpayable",
      "type": "function"
    },
    {
      "inputs": [
        {
          "internalType": "address",
          "name": "newOwner",
          "type": "address"
        }
      ],
      "name": "transferOwnership",
      "outputs": [],
      "stateMutability": "nonpayable",
      "type": "function"
    }
  ],
  "bytecode": "0x608060405234801561001057600080fd5b5061002d61002261003260201b60201c565b61003a60201b60201c565b6100fe565b600033905090565b60008060009054906101000a900473ffffffffffffffffffffffffffffffffffffffff169050816000806101000a81548173ffffffffffffffffffffffffffffffffffffffff021916908373ffffffffffffffffffffffffffffffffffffffff1602179055508173ffffffffffffffffffffffffffffffffffffffff168173ffffffffffffffffffffffffffffffffffffffff167f8be0079c531659141344cd1fd0a4f28419497f9722a3daafe3b4186f6b6457e060405160405180910390a35050565b611efb8061010d6000396000f3fe60806040526004361061009c5760003560e01c80638da5cb5b116100645780638da5cb5b14610163578063d7a1aed21461018e578063d7bce658146101b7578063e261f1e5146101e2578063f2fde38b14610224578063fe0cb7dc1461024d5761009c565b80630814e620146100a1578063135f71c4146100ca578063455b9d23146100e6578063715018a614610123578063716256411461013a575b600080fd5b3480156100ad57600080fd5b506100c860048036038101906100c3919061143c565b61028f565b005b6100e460048036038101906100df91906114db565b6103ff565b005b3480156100f257600080fd5b5061010d60048036038101906101089190611595565b610734565b60405161011a9190611680565b60405180910390f35b34801561012f57600080fd5b506101386108f4565b005b34801561014657600080fd5b50610161600480360381019061015c91906116a2565b610908565b005b34801561016f57600080fd5b50610178610b0d565b6040516101859190611720565b60405180910390f35b34801561019a57600080fd5b506101b560048036038101906101b0919061173b565b610b36565b005b3480156101c357600080fd5b506101cc610cb4565b6040516101d9919061178a565b60405180910390f35b3480156101ee57600080fd5b50610209600480360381019061020491906117a5565b610cba565b60405161021b96959493929190611875565b60405180910390f35b34801561023057600080fd5b5061024b60048036038101906102469190611595565b610e33565b005b34801561025957600080fd5b50610274600480360381019061026f91906117a5565b610eb7565b60405161028696959493929190611875565b60405180910390f35b600260008154809291906102a290611913565b91905055506040518060c001604052808581526020018481526020018381526020018281526020016000151581526020013373ffffffffffffffffffffffffffffffffffffffff16815250600160006002548152602001908152602001600020600082015181600001908051906020019061031e929190611209565b50602082015181600101908051906020019061033b929190611209565b50604082015181600201556060820151816003015560808201518160040160006101000a81548160ff02191690831515021790555060a08201518160040160016101000a81548173ffffffffffffffffffffffffffffffffffffffff021916908373ffffffffffffffffffffffffffffffffffffffff1602179055509050507f892b379b37cd07fe40cab6859a79d8898e1e854252b58ae38596fa21d30b65be6002548585856040516103f1949392919061195c565b60405180910390a150505050565b60006001600084815260200190815260200160002090508060040160009054906101000a900460ff16610467576040517f08c379a000000000000000000000000000000000000000000000000000000000815260040161045e906119fb565b60405180910390fd5b80600301543410156104ae576040517f08c379a00000000000000000000000000000000000000000000000000000000081526004016104a590611a67565b60405180910390fd5b3373ffffffffffffffffffffffffffffffffffffffff168160040160019054906101000a900473ffffffffffffffffffffffffffffffffffffffff1673ffffffffffffffffffffffffffffffffffffffff161415610541576040517f08c379a000000000000000000000000000000000000000000000000000000000815260040161053890611ad3565b60405180910390fd5b60008160040160019054906101000a900473ffffffffffffffffffffffffffffffffffffffff1673ffffffffffffffffffffffffffffffffffffffff163460405161058b90611b24565b60006040518083038185875af1925050503d80600081146105c8576040519150601f19603f3d011682016040523d82523d6000602084013e6105cd565b606091505b5050905080610611576040517f08c379a000000000000000000000000000000000000000000000000000000000815260040161060890611b85565b60405180910390fd5b60008260040160019054906101000a900473ffffffffffffffffffffffffffffffffffffffff169050338360040160016101000a81548173ffffffffffffffffffffffffffffffffffffffff021916908373ffffffffffffffffffffffffffffffffffffffff16021790555083836001019080519060200190610695929190611209565b5060008360040160006101000a81548160ff0219169083151502179055507f2dcc677025acfeac3c6b0dedf2599864d3878a9041058fa9d55aa4e47409120a858233346040516106e89493929190611ba5565b60405180910390a17fc6f76974206718b625c9faba8b5ae1931f1e7a6620c23458a74554aeffef1360858233876040516107259493929190611bea565b60405180910390a15050505050565b6060600060025467ffffffffffffffff811115610754576107536112db565b5b6040519080825280602002602001820160405280156107825781602001602082028036833780820191505090505b509050600080600190505b6002548111610842578473ffffffffffffffffffffffffffffffffffffffff166001600083815260200190815260200160002060040160019054906101000a900473ffffffffffffffffffffffffffffffffffffffff1673ffffffffffffffffffffffffffffffffffffffff16141561082f578083838151811061081457610813611c36565b5b602002602001018181525050818061082b90611913565b9250505b808061083a90611913565b91505061078d565b5060008167ffffffffffffffff81111561085f5761085e6112db565b5b60405190808252806020026020018201604052801561088d5781602001602082028036833780820191505090505b50905060005b828110156108e8578381815181106108ae576108ad611c36565b5b60200260200101518282815181106108c9576108c8611c36565b5b60200260200101818152505080806108e090611913565b915050610893565b50809350505050919050565b6108fc6110bf565b610906600061113d565b565b3373ffffffffffffffffffffffffffffffffffffffff166001600085815260200190815260200160002060040160019054906101000a900473ffffffffffffffffffffffffffffffffffffffff1673ffffffffffffffffffffffffffffffffffffffff16146109ac576040517f08c379a00000000000000000000000000000000000000000000000000000000081526004016109a390611cb1565b60405180910390fd5b600073ffffffffffffffffffffffffffffffffffffffff168273ffffffffffffffffffffffffffffffffffffffff161415610a1c576040517f08c379a0000000000000000000000000000000000000000000000000000000008152600401610a1390611d1d565b60405180910390fd5b816001600085815260200190815260200160002060040160016101000a81548173ffffffffffffffffffffffffffffffffffffffff021916908373ffffffffffffffffffffffffffffffffffffffff16021790555080600160008581526020019081526020016000206001019080519060200190610a9b929190611209565b5060006001600085815260200190815260200160002060040160006101000a81548160ff0219169083151502179055507fc6f76974206718b625c9faba8b5ae1931f1e7a6620c23458a74554aeffef136083338484604051610b009493929190611bea565b60405180910390a1505050565b60008060009054906101000a900473ffffffffffffffffffffffffffffffffffffffff16905090565b3373ffffffffffffffffffffffffffffffffffffffff166001600084815260200190815260200160002060040160019054906101000a900473ffffffffffffffffffffffffffffffffffffffff1673ffffffffffffffffffffffffffffffffffffffff1614610bda576040517f08c379a0000000000000000000000000000000000000000000000000000000008152600401610bd190611cb1565b60405180910390fd5b60006001600084815260200190815260200160002060040160009054906101000a900460ff16905080156001600085815260200190815260200160002060040160006101000a81548160ff0219169083151502179055508160016000858152602001908152602001600020600301819055506001600084815260200190815260200160002060040160009054906101000a900460ff1615610caf577f1b966b5564019186c432b9d69b9cc9eb36ba6fc3e817935391a8df6a6c7a2f258383604051610ca6929190611d3d565b60405180910390a15b505050565b60025481565b6001602052806000526040600020600091509050806000018054610cdd90611d95565b80601f0160208091040260200160405190810160405280929190818152602001828054610d0990611d95565b8015610d565780601f10610d2b57610100808354040283529160200191610d56565b820191906000526020600020905b815481529060010190602001808311610d3957829003601f168201915b505050505090806001018054610d6b90611d95565b80601f0160208091040260200160405190810160405280929190818152602001828054610d9790611d95565b8015610de45780601f10610db957610100808354040283529160200191610de4565b820191906000526020600020905b815481529060010190602001808311610dc757829003601f168201915b5050505050908060020154908060030154908060040160009054906101000a900460ff16908060040160019054906101000a900473ffffffffffffffffffffffffffffffffffffffff16905086565b610e3b6110bf565b600073ffffffffffffffffffffffffffffffffffffffff168173ffffffffffffffffffffffffffffffffffffffff161415610eab576040517f08c379a0000000000000000000000000000000000000000000000000000000008152600401610ea290611e39565b60405180910390fd5b610eb48161113d565b50565b6060806000806000806000600160008981526020019081526020016000206040518060c0016040529081600082018054610ef090611d95565b80601f0160208091040260200160405190810160405280929190818152602001828054610f1c90611d95565b8015610f695780601f10610f3e57610100808354040283529160200191610f69565b820191906000526020600020905b815481529060010190602001808311610f4c57829003601f168201915b50505050508152602001600182018054610f8290611d95565b80601f0160208091040260200160405190810160405280929190818152602001828054610fae90611d95565b8015610ffb5780601f10610fd057610100808354040283529160200191610ffb565b820191906000526020600020905b815481529060010190602001808311610fde57829003601f168201915b5050505050815260200160028201548152602001600382015481526020016004820160009054906101000a900460ff161515151581526020016004820160019054906101000a900473ffffffffffffffffffffffffffffffffffffffff1673ffffffffffffffffffffffffffffffffffffffff1673ffffffffffffffffffffffffffffffffffffffff16815250509050806000015181602001518260400151836060015184608001518560a001519650965096509650965096505091939550919395565b6110c7611201565b73ffffffffffffffffffffffffffffffffffffffff166110e5610b0d565b73ffffffffffffffffffffffffffffffffffffffff161461113b576040517f08c379a000000000000000000000000000000000000000000000000000000000815260040161113290611ea5565b60405180910390fd5b565b60008060009054906101000a900473ffffffffffffffffffffffffffffffffffffffff169050816000806101000a81548173ffffffffffffffffffffffffffffffffffffffff021916908373ffffffffffffffffffffffffffffffffffffffff1602179055508173ffffffffffffffffffffffffffffffffffffffff168173ffffffffffffffffffffffffffffffffffffffff167f8be0079c531659141344cd1fd0a4f28419497f9722a3daafe3b4186f6b6457e060405160405180910390a35050565b600033905090565b82805461121590611d95565b90600052602060002090601f016020900481019282611237576000855561127e565b82601f1061125057805160ff191683800117855561127e565b8280016001018555821561127e579182015b8281111561127d578251825591602001919060010190611262565b5b50905061128b919061128f565b5090565b5b808211156112a8576000816000905550600101611290565b5090565b6000604051905090565b600080fd5b600080fd5b600080fd5b600080fd5b6000601f19601f8301169050919050565b7f4e487b7100000000000000000000000000000000000000000000000000000000600052604160045260246000fd5b611313826112ca565b810181811067ffffffffffffffff82111715611332576113316112db565b5b80604052505050565b60006113456112ac565b9050611351828261130a565b919050565b600067ffffffffffffffff821115611371576113706112db565b5b61137a826112ca565b9050602081019050919050565b82818337600083830152505050565b60006113a96113a484611356565b61133b565b9050828152602081018484840111156113c5576113c46112c5565b5b6113d0848285611387565b509392505050565b600082601f8301126113ed576113ec6112c0565b5b81356113fd848260208601611396565b91505092915050565b6000819050919050565b61141981611406565b811461142457600080fd5b50565b60008135905061143681611410565b92915050565b60008060008060808587031215611456576114556112b6565b5b600085013567ffffffffffffffff811115611474576114736112bb565b5b611480878288016113d8565b945050602085013567ffffffffffffffff8111156114a1576114a06112bb565b5b6114ad878288016113d8565b93505060406114be87828801611427565b92505060606114cf87828801611427565b91505092959194509250565b600080604083850312156114f2576114f16112b6565b5b600061150085828601611427565b925050602083013567ffffffffffffffff811115611521576115206112bb565b5b61152d858286016113d8565b9150509250929050565b600073ffffffffffffffffffffffffffffffffffffffff82169050919050565b600061156282611537565b9050919050565b61157281611557565b811461157d57600080fd5b50565b60008135905061158f81611569565b92915050565b6000602082840312156115ab576115aa6112b6565b5b60006115b984828501611580565b91505092915050565b600081519050919050565b600082825260208201905092915050565b6000819050602082019050919050565b6115f781611406565b82525050565b600061160983836115ee565b60208301905092915050565b6000602082019050919050565b600061162d826115c2565b61163781856115cd565b9350611642836115de565b8060005b8381101561167357815161165a88826115fd565b975061166583611615565b925050600181019050611646565b5085935050505092915050565b6000602082019050818103600083015261169a8184611622565b905092915050565b6000806000606084860312156116bb576116ba6112b6565b5b60006116c986828701611427565b93505060206116da86828701611580565b925050604084013567ffffffffffffffff8111156116fb576116fa6112bb565b5b611707868287016113d8565b9150509250925092565b61171a81611557565b82525050565b60006020820190506117356000830184611711565b92915050565b60008060408385031215611752576117516112b6565b5b600061176085828601611427565b925050602061177185828601611427565b9150509250929050565b61178481611406565b82525050565b600060208201905061179f600083018461177b565b92915050565b6000602082840312156117bb576117ba6112b6565b5b60006117c984828501611427565b91505092915050565b600081519050919050565b600082825260208201905092915050565b60005b8381101561180c5780820151818401526020810190506117f1565b8381111561181b576000848401525b50505050565b600061182c826117d2565b61183681856117dd565b93506118468185602086016117ee565b61184f816112ca565b840191505092915050565b60008115159050919050565b61186f8161185a565b82525050565b600060c082019050818103600083015261188f8189611821565b905081810360208301526118a38188611821565b90506118b2604083018761177b565b6118bf606083018661177b565b6118cc6080830185611866565b6118d960a0830184611711565b979650505050505050565b7f4e487b7100000000000000000000000000000000000000000000000000000000600052601160045260246000fd5b600061191e82611406565b91507fffffffffffffffffffffffffffffffffffffffffffffffffffffffffffffffff821415611951576119506118e4565b5b600182019050919050565b6000608082019050611971600083018761177b565b81810360208301526119838186611821565b905081810360408301526119978185611821565b90506119a6606083018461177b565b95945050505050565b7f4c616e64206973206e6f7420666f722073616c65000000000000000000000000600082015250565b60006119e56014836117dd565b91506119f0826119af565b602082019050919050565b60006020820190508181036000830152611a14816119d8565b9050919050565b7f496e73756666696369656e74207061796d656e74000000000000000000000000600082015250565b6000611a516014836117dd565b9150611a5c82611a1b565b602082019050919050565b60006020820190508181036000830152611a8081611a44565b9050919050565b7f596f7520616c7265616479206f776e2074686973206c616e6400000000000000600082015250565b6000611abd6019836117dd565b9150611ac882611a87565b602082019050919050565b60006020820190508181036000830152611aec81611ab0565b9050919050565b600081905092915050565b50565b6000611b0e600083611af3565b9150611b1982611afe565b600082019050919050565b6000611b2f82611b01565b9150819050919050565b7f4661696c656420746f2073656e64207061796d656e7400000000000000000000600082015250565b6000611b6f6016836117dd565b9150611b7a82611b39565b602082019050919050565b60006020820190508181036000830152611b9e81611b62565b9050919050565b6000608082019050611bba600083018761177b565b611bc76020830186611711565b611bd46040830185611711565b611be1606083018461177b565b95945050505050565b6000608082019050611bff600083018761177b565b611c0c6020830186611711565b611c196040830185611711565b8181036060830152611c2b8184611821565b905095945050505050565b7f4e487b7100000000000000000000000000000000000000000000000000000000600052603260045260246000fd5b7f596f7520617265206e6f7420746865206f776e65720000000000000000000000600082015250565b6000611c9b6015836117dd565b9150611ca682611c65565b602082019050919050565b60006020820190508181036000830152611cca81611c8e565b9050919050565b7f496e76616c696420616464726573730000000000000000000000000000000000600082015250565b6000611d07600f836117dd565b9150611d1282611cd1565b602082019050919050565b60006020820190508181036000830152611d3681611cfa565b9050919050565b6000604082019050611d52600083018561177b565b611d5f602083018461177b565b9392505050565b7f4e487b7100000000000000000000000000000000000000000000000000000000600052602260045260246000fd5b60006002820490506001821680611dad57607f821691505b60208210811415611dc157611dc0611d66565b5b50919050565b7f4f776e61626c653a206e6577206f776e657220697320746865207a65726f206160008201527f6464726573730000000000000000000000000000000000000000000000000000602082015250565b6000611e236026836117dd565b9150611e2e82611dc7565b604082019050919050565b60006020820190508181036000830152611e5281611e16565b9050919050565b7f4f776e61626c653a2063616c6c6572206973206e6f7420746865206f776e6572600082015250565b6000611e8f6020836117dd565b9150611e9a82611e59565b602082019050919050565b60006020820190508181036000830152611ebe81611e82565b905091905056fea26469706673582212202841d53e5edfda545eb088cb2b643833124873a0b8db8d378f49c08d913a3d9764736f6c63430008090033",
  "linkReferences": {},
  "deployedLinkReferences": {}
}